{
  "_format": "hh-sol-artifact-1",
  "contractName": "BlastoffToken",
  "sourceName": "contracts/BlastoffToken.sol",
  "abi": [
    {
      "inputs": [
        {
          "internalType": "string",
          "name": "name_",
          "type": "string"
        },
        {
          "internalType": "string",
          "name": "symbol_",
          "type": "string"
        },
        {
          "internalType": "address",
          "name": "factory_",
          "type": "address"
        }
      ],
      "stateMutability": "nonpayable",
      "type": "constructor"
    },
    {
      "anonymous": false,
      "inputs": [
        {
          "indexed": true,
          "internalType": "address",
          "name": "owner",
          "type": "address"
        },
        {
          "indexed": true,
          "internalType": "address",
          "name": "spender",
          "type": "address"
        },
        {
          "indexed": false,
          "internalType": "uint256",
          "name": "value",
          "type": "uint256"
        }
      ],
      "name": "Approval",
      "type": "event"
    },
    {
      "anonymous": false,
      "inputs": [
        {
          "indexed": true,
          "internalType": "address",
          "name": "from",
          "type": "address"
        },
        {
          "indexed": true,
          "internalType": "address",
          "name": "to",
          "type": "address"
        },
        {
          "indexed": false,
          "internalType": "uint256",
          "name": "value",
          "type": "uint256"
        }
      ],
      "name": "Transfer",
      "type": "event"
    },
    {
      "inputs": [
        {
          "internalType": "address",
          "name": "",
          "type": "address"
        },
        {
          "internalType": "address",
          "name": "",
          "type": "address"
        }
      ],
      "name": "allowance",
      "outputs": [
        {
          "internalType": "uint256",
          "name": "",
          "type": "uint256"
        }
      ],
      "stateMutability": "view",
      "type": "function"
    },
    {
      "inputs": [
        {
          "internalType": "address",
          "name": "spender",
          "type": "address"
        },
        {
          "internalType": "uint256",
          "name": "value",
          "type": "uint256"
        }
      ],
      "name": "approve",
      "outputs": [
        {
          "internalType": "bool",
          "name": "",
          "type": "bool"
        }
      ],
      "stateMutability": "nonpayable",
      "type": "function"
    },
    {
      "inputs": [
        {
          "internalType": "address",
          "name": "",
          "type": "address"
        }
      ],
      "name": "balanceOf",
      "outputs": [
        {
          "internalType": "uint256",
          "name": "",
          "type": "uint256"
        }
      ],
      "stateMutability": "view",
      "type": "function"
    },
    {
      "inputs": [
        {
          "internalType": "address",
          "name": "from",
          "type": "address"
        },
        {
          "internalType": "uint256",
          "name": "value",
          "type": "uint256"
        }
      ],
      "name": "burn",
      "outputs": [],
      "stateMutability": "nonpayable",
      "type": "function"
    },
    {
      "inputs": [],
      "name": "decimals",
      "outputs": [
        {
          "internalType": "uint8",
          "name": "",
          "type": "uint8"
        }
      ],
      "stateMutability": "view",
      "type": "function"
    },
    {
      "inputs": [],
      "name": "factory",
      "outputs": [
        {
          "internalType": "address",
          "name": "",
          "type": "address"
        }
      ],
      "stateMutability": "view",
      "type": "function"
    },
    {
      "inputs": [
        {
          "internalType": "address",
          "name": "to",
          "type": "address"
        },
        {
          "internalType": "uint256",
          "name": "value",
          "type": "uint256"
        }
      ],
      "name": "mint",
      "outputs": [],
      "stateMutability": "nonpayable",
      "type": "function"
    },
    {
      "inputs": [],
      "name": "name",
      "outputs": [
        {
          "internalType": "string",
          "name": "",
          "type": "string"
        }
      ],
      "stateMutability": "view",
      "type": "function"
    },
    {
      "inputs": [],
      "name": "symbol",
      "outputs": [
        {
          "internalType": "string",
          "name": "",
          "type": "string"
        }
      ],
      "stateMutability": "view",
      "type": "function"
    },
    {
      "inputs": [],
      "name": "totalSupply",
      "outputs": [
        {
          "internalType": "uint256",
          "name": "",
          "type": "uint256"
        }
      ],
      "stateMutability": "view",
      "type": "function"
    },
    {
      "inputs": [
        {
          "internalType": "address",
          "name": "to",
          "type": "address"
        },
        {
          "internalType": "uint256",
          "name": "value",
          "type": "uint256"
        }
      ],
      "name": "transfer",
      "outputs": [
        {
          "internalType": "bool",
          "name": "",
          "type": "bool"
        }
      ],
      "stateMutability": "nonpayable",
      "type": "function"
    },
    {
      "inputs": [
        {
          "internalType": "address",
          "name": "from",
          "type": "address"
        },
        {
          "internalType": "address",
          "name": "to",
          "type": "address"
        },
        {
          "internalType": "uint256",
          "name": "value",
          "type": "uint256"
        }
      ],
      "name": "transferFrom",
      "outputs": [
        {
          "internalType": "bool",
          "name": "",
          "type": "bool"
        }
      ],
      "stateMutability": "nonpayable",
      "type": "function"
    }
  ],
  "bytecode": "0x60a06040523480156200001157600080fd5b5060405162001a9038038062001a90833981810160405281019062000037919062000302565b600073ffffffffffffffffffffffffffffffffffffffff168173ffffffffffffffffffffffffffffffffffffffff1603620000a9576040517f08c379a0000000000000000000000000000000000000000000000000000000008152600401620000a090620003fd565b60405180910390fd5b8260009081620000ba91906200066a565b508160019081620000cc91906200066a565b508073ffffffffffffffffffffffffffffffffffffffff1660808173ffffffffffffffffffffffffffffffffffffffff168152505050505062000751565b6000604051905090565b600080fd5b600080fd5b600080fd5b600080fd5b6000601f19601f8301169050919050565b7f4e487b7100000000000000000000000000000000000000000000000000000000600052604160045260246000fd5b620001738262000128565b810181811067ffffffffffffffff8211171562000195576200019462000139565b5b80604052505050565b6000620001aa6200010a565b9050620001b8828262000168565b919050565b600067ffffffffffffffff821115620001db57620001da62000139565b5b620001e68262000128565b9050602081019050919050565b60005b8381101562000213578082015181840152602081019050620001f6565b60008484015250505050565b6000620002366200023084620001bd565b6200019e565b90508281526020810184848401111562000255576200025462000123565b5b62000262848285620001f3565b509392505050565b600082601f8301126200028257620002816200011e565b5b8151620002948482602086016200021f565b91505092915050565b600073ffffffffffffffffffffffffffffffffffffffff82169050919050565b6000620002ca826200029d565b9050919050565b620002dc81620002bd565b8114620002e857600080fd5b50565b600081519050620002fc81620002d1565b92915050565b6000806000606084860312156200031e576200031d62000114565b5b600084015167ffffffffffffffff8111156200033f576200033e62000119565b5b6200034d868287016200026a565b935050602084015167ffffffffffffffff81111562000371576200037062000119565b5b6200037f868287016200026a565b92505060406200039286828701620002eb565b9150509250925092565b600082825260208201905092915050565b7f666163746f727920726571756972656400000000000000000000000000000000600082015250565b6000620003e56010836200039c565b9150620003f282620003ad565b602082019050919050565b600060208201905081810360008301526200041881620003d6565b9050919050565b600081519050919050565b7f4e487b7100000000000000000000000000000000000000000000000000000000600052602260045260246000fd5b600060028204905060018216806200047257607f821691505b6020821081036200048857620004876200042a565b5b50919050565b60008190508160005260206000209050919050565b60006020601f8301049050919050565b600082821b905092915050565b600060088302620004f27fffffffffffffffffffffffffffffffffffffffffffffffffffffffffffffffff82620004b3565b620004fe8683620004b3565b95508019841693508086168417925050509392505050565b6000819050919050565b6000819050919050565b60006200054b620005456200053f8462000516565b62000520565b62000516565b9050919050565b6000819050919050565b62000567836200052a565b6200057f620005768262000552565b848454620004c0565b825550505050565b600090565b6200059662000587565b620005a38184846200055c565b505050565b5b81811015620005cb57620005bf6000826200058c565b600181019050620005a9565b5050565b601f8211156200061a57620005e4816200048e565b620005ef84620004a3565b81016020851015620005ff578190505b620006176200060e85620004a3565b830182620005a8565b50505b505050565b600082821c905092915050565b60006200063f600019846008026200061f565b1980831691505092915050565b60006200065a83836200062c565b9150826002028217905092915050565b62000675826200041f565b67ffffffffffffffff81111562000691576200069062000139565b5b6200069d825462000459565b620006aa828285620005cf565b600060209050601f831160018114620006e25760008415620006cd578287015190505b620006d985826200064c565b86555062000749565b601f198416620006f2866200048e565b60005b828110156200071c57848901518255600182019150602085019450602081019050620006f5565b868310156200073c578489015162000738601f8916826200062c565b8355505b6001600288020188555050505b505050505050565b6080516113156200077b60003960008181610594015281816106d6015261078901526113156000f3fe608060405234801561001057600080fd5b50600436106100b45760003560e01c806370a082311161007157806370a082311461018f57806395d89b41146101bf5780639dc29fac146101dd578063a9059cbb146101f9578063c45a015514610229578063dd62ed3e14610247576100b4565b806306fdde03146100b9578063095ea7b3146100d757806318160ddd1461010757806323b872dd14610125578063313ce5671461015557806340c10f1914610173575b600080fd5b6100c1610277565b6040516100ce9190610ce4565b60405180910390f35b6100f160048036038101906100ec9190610d9f565b610305565b6040516100fe9190610dfa565b60405180910390f35b61010f6103f7565b60405161011c9190610e24565b60405180910390f35b61013f600480360381019061013a9190610e3f565b6103fd565b60405161014c9190610dfa565b60405180910390f35b61015d61058d565b60405161016a9190610eae565b60405180910390f35b61018d60048036038101906101889190610d9f565b610592565b005b6101a960048036038101906101a49190610ec9565b61062e565b6040516101b69190610e24565b60405180910390f35b6101c7610646565b6040516101d49190610ce4565b60405180910390f35b6101f760048036038101906101f29190610d9f565b6106d4565b005b610213600480360381019061020e9190610d9f565b610770565b6040516102209190610dfa565b60405180910390f35b610231610787565b60405161023e9190610f05565b60405180910390f35b610261600480360381019061025c9190610f20565b6107ab565b60405161026e9190610e24565b60405180910390f35b6000805461028490610f8f565b80601f01602080910402602001604051908101604052809291908181526020018280546102b090610f8f565b80156102fd5780601f106102d2576101008083540402835291602001916102fd565b820191906000526020600020905b8154815290600101906020018083116102e057829003601f168201915b505050505081565b600081600460003373ffffffffffffffffffffffffffffffffffffffff1673ffffffffffffffffffffffffffffffffffffffff16815260200190815260200160002060008573ffffffffffffffffffffffffffffffffffffffff1673ffffffffffffffffffffffffffffffffffffffff168152602001908152602001600020819055508273ffffffffffffffffffffffffffffffffffffffff163373ffffffffffffffffffffffffffffffffffffffff167f8c5be1e5ebec7d5bd14f71427d1e84f3dd0314c0f7b2291e5b200ac8c7c3b925846040516103e59190610e24565b60405180910390a36001905092915050565b60025481565b600080600460008673ffffffffffffffffffffffffffffffffffffffff1673ffffffffffffffffffffffffffffffffffffffff16815260200190815260200160002060003373ffffffffffffffffffffffffffffffffffffffff1673ffffffffffffffffffffffffffffffffffffffff168152602001908152602001600020549050828110156104c2576040517f08c379a00000000000000000000000000000000000000000000000000000000081526004016104b99061100c565b60405180910390fd5b7fffffffffffffffffffffffffffffffffffffffffffffffffffffffffffffffff81146105765782816104f5919061105b565b600460008773ffffffffffffffffffffffffffffffffffffffff1673ffffffffffffffffffffffffffffffffffffffff16815260200190815260200160002060003373ffffffffffffffffffffffffffffffffffffffff1673ffffffffffffffffffffffffffffffffffffffff168152602001908152602001600020819055505b6105818585856107d0565b60019150509392505050565b601281565b7f000000000000000000000000000000000000000000000000000000000000000073ffffffffffffffffffffffffffffffffffffffff163373ffffffffffffffffffffffffffffffffffffffff1614610620576040517f08c379a0000000000000000000000000000000000000000000000000000000008152600401610617906110db565b60405180910390fd5b61062a82826109c4565b5050565b60036020528060005260406000206000915090505481565b6001805461065390610f8f565b80601f016020809104026020016040519081016040528092919081815260200182805461067f90610f8f565b80156106cc5780601f106106a1576101008083540402835291602001916106cc565b820191906000526020600020905b8154815290600101906020018083116106af57829003601f168201915b505050505081565b7f000000000000000000000000000000000000000000000000000000000000000073ffffffffffffffffffffffffffffffffffffffff163373ffffffffffffffffffffffffffffffffffffffff1614610762576040517f08c379a0000000000000000000000000000000000000000000000000000000008152600401610759906110db565b60405180910390fd5b61076c8282610b0c565b5050565b600061077d3384846107d0565b6001905092915050565b7f000000000000000000000000000000000000000000000000000000000000000081565b6004602052816000526040600020602052806000526040600020600091509150505481565b600073ffffffffffffffffffffffffffffffffffffffff168273ffffffffffffffffffffffffffffffffffffffff160361083f576040517f08c379a000000000000000000000000000000000000000000000000000000000815260040161083690611147565b60405180910390fd5b6000600360008573ffffffffffffffffffffffffffffffffffffffff1673ffffffffffffffffffffffffffffffffffffffff168152602001908152602001600020549050818110156108c6576040517f08c379a00000000000000000000000000000000000000000000000000000000081526004016108bd906111b3565b60405180910390fd5b818103600360008673ffffffffffffffffffffffffffffffffffffffff1673ffffffffffffffffffffffffffffffffffffffff1681526020019081526020016000208190555081600360008573ffffffffffffffffffffffffffffffffffffffff1673ffffffffffffffffffffffffffffffffffffffff168152602001908152602001600020600082825401925050819055508273ffffffffffffffffffffffffffffffffffffffff168473ffffffffffffffffffffffffffffffffffffffff167fddf252ad1be2c89b69c2b068fc378daa952ba7f163c4a11628f55a4df523b3ef846040516109b69190610e24565b60405180910390a350505050565b600073ffffffffffffffffffffffffffffffffffffffff168273ffffffffffffffffffffffffffffffffffffffff1603610a33576040517f08c379a0000000000000000000000000000000000000000000000000000000008152600401610a2a9061121f565b60405180910390fd5b8060026000828254610a45919061123f565b9250508190555080600360008473ffffffffffffffffffffffffffffffffffffffff1673ffffffffffffffffffffffffffffffffffffffff1681526020019081526020016000206000828254610a9b919061123f565b925050819055508173ffffffffffffffffffffffffffffffffffffffff16600073ffffffffffffffffffffffffffffffffffffffff167fddf252ad1be2c89b69c2b068fc378daa952ba7f163c4a11628f55a4df523b3ef83604051610b009190610e24565b60405180910390a35050565b6000600360008473ffffffffffffffffffffffffffffffffffffffff1673ffffffffffffffffffffffffffffffffffffffff16815260200190815260200160002054905081811015610b93576040517f08c379a0000000000000000000000000000000000000000000000000000000008152600401610b8a906112bf565b60405180910390fd5b818103600360008573ffffffffffffffffffffffffffffffffffffffff1673ffffffffffffffffffffffffffffffffffffffff1681526020019081526020016000208190555081600260008282540392505081905550600073ffffffffffffffffffffffffffffffffffffffff168373ffffffffffffffffffffffffffffffffffffffff167fddf252ad1be2c89b69c2b068fc378daa952ba7f163c4a11628f55a4df523b3ef84604051610c479190610e24565b60405180910390a3505050565b600081519050919050565b600082825260208201905092915050565b60005b83811015610c8e578082015181840152602081019050610c73565b60008484015250505050565b6000601f19601f8301169050919050565b6000610cb682610c54565b610cc08185610c5f565b9350610cd0818560208601610c70565b610cd981610c9a565b840191505092915050565b60006020820190508181036000830152610cfe8184610cab565b905092915050565b600080fd5b600073ffffffffffffffffffffffffffffffffffffffff82169050919050565b6000610d3682610d0b565b9050919050565b610d4681610d2b565b8114610d5157600080fd5b50565b600081359050610d6381610d3d565b92915050565b6000819050919050565b610d7c81610d69565b8114610d8757600080fd5b50565b600081359050610d9981610d73565b92915050565b60008060408385031215610db657610db5610d06565b5b6000610dc485828601610d54565b9250506020610dd585828601610d8a565b9150509250929050565b60008115159050919050565b610df481610ddf565b82525050565b6000602082019050610e0f6000830184610deb565b92915050565b610e1e81610d69565b82525050565b6000602082019050610e396000830184610e15565b92915050565b600080600060608486031215610e5857610e57610d06565b5b6000610e6686828701610d54565b9350506020610e7786828701610d54565b9250506040610e8886828701610d8a565b9150509250925092565b600060ff82169050919050565b610ea881610e92565b82525050565b6000602082019050610ec36000830184610e9f565b92915050565b600060208284031215610edf57610ede610d06565b5b6000610eed84828501610d54565b91505092915050565b610eff81610d2b565b82525050565b6000602082019050610f1a6000830184610ef6565b92915050565b60008060408385031215610f3757610f36610d06565b5b6000610f4585828601610d54565b9250506020610f5685828601610d54565b9150509250929050565b7f4e487b7100000000000000000000000000000000000000000000000000000000600052602260045260246000fd5b60006002820490506001821680610fa757607f821691505b602082108103610fba57610fb9610f60565b5b50919050565b7f616c6c6f77616e63650000000000000000000000000000000000000000000000600082015250565b6000610ff6600983610c5f565b915061100182610fc0565b602082019050919050565b6000602082019050818103600083015261102581610fe9565b9050919050565b7f4e487b7100000000000000000000000000000000000000000000000000000000600052601160045260246000fd5b600061106682610d69565b915061107183610d69565b92508282039050818111156110895761108861102c565b5b92915050565b7f6f6e6c7920666163746f72790000000000000000000000000000000000000000600082015250565b60006110c5600c83610c5f565b91506110d08261108f565b602082019050919050565b600060208201905081810360008301526110f4816110b8565b9050919050565b7f7472616e7366657220746f207a65726f00000000000000000000000000000000600082015250565b6000611131601083610c5f565b915061113c826110fb565b602082019050919050565b6000602082019050818103600083015261116081611124565b9050919050565b7f696e73756666696369656e742062616c616e6365000000000000000000000000600082015250565b600061119d601483610c5f565b91506111a882611167565b602082019050919050565b600060208201905081810360008301526111cc81611190565b9050919050565b7f6d696e7420746f207a65726f0000000000000000000000000000000000000000600082015250565b6000611209600c83610c5f565b9150611214826111d3565b602082019050919050565b60006020820190508181036000830152611238816111fc565b9050919050565b600061124a82610d69565b915061125583610d69565b925082820190508082111561126d5761126c61102c565b5b92915050565b7f6275726e20657863656564732062616c616e6365000000000000000000000000600082015250565b60006112a9601483610c5f565b91506112b482611273565b602082019050919050565b600060208201905081810360008301526112d88161129c565b905091905056fea264697066735822122035d4580b19e39828d0bba8c61c5d8234d01f725f293428d5e44a396922d3480864736f6c63430008180033",
  "linkReferences": {},
  "deployedLinkReferences": {}
}